:1000000000800020BD01000039470000F1460000DB
:10001000F1460000F1460000F1460000F146000004
:10002000F1460000F1460000F146000039470000AB
:1000300039470000F146000039470000E146000062
:1000400039470000394700003947000039470000B0
:1000500039470000394700003947000039470000A0
:100060003947000039470000394700003947000090
:100070003947000039470000394700003947000080
:100080003947000039470000394700003947000070
:100090003947000039470000394700003947000060
:1000A0005544000061440000394700003947000012
:1000B0003947000039470000394700003947000040
:1000C0003947000039470000394700003947000030
:1000D0003947000039470000394700003947000020
:1000E0003947000039470000394700003947000010
:1000F0003947000031700000394700007577000073
:1001000039470000E57C000039470000394700000E
:1001100039470000394700003947000039470000DF
:1001200039470000394700003947000039470000CF
:1001300039470000394700003947000039470000BF
:1001400039470000394700003947000039470000AF
:10015000394700003947000039470000394700009F
:1001600039470000D94D00003947000039470000E9
:10017000394700003947000039470000394700007F
:10018000394700003947000039470000394700006F
:10019000394700003947000039470000394700005F
:1001A000394700003947000039470000394700004F
:1001B000394700003947000045620000564B4CF2B9
:1001C000205210B51A804DF628121A8000BF00BFC9
:1001D00004F0B6FA514B4FF010621A60504A9A6020
:1001E000504ADA60504A136813F4807304D14F49BF
:1001F0000B604FF4A85313604D4B1A78110703D5C9
:100200001A7842F008021A704A4B4B492A221A7097
:100210004A4A4B4B8B4204D252F8040F43F8040B6A
:10022000F8E7484B484900228B4202D243F8042B9E
:10023000FAE74649464A002352F8230041F82300D2
:1002400001336F2BF8D1434B434A802103F8011B44
:100250009342FBD1414B3D4A1A60414B8A221A70AE
:10026000A3F5805324225A70A0221A709A7992071B
:10027000FCD59A79D406FCD43A4A937903F00C035E
:10028000082B384BF9D103221A7140225A719A79FE
:100290009006FCD5334A9179324B4906FBD5324A58
:1002A000324911600221516020221A709A7902F0BD
:1002B0000C020C2AFAD12E4B2E4A1A602E4B2F4AD2
:1002C0001A6000225A60072243F8042C2C4AC3F813
:1002D0000C2D62B604F00CFC144B1B68DA0705D534
:1002E000284804F08BFB284B284A1A60284B1B78BF
:1002F0005B0609D5244C254B22689A4204D121483B
:1003000004F07CFB002323600AF020F804F01EFABE
:1003100006F0AEF8FEE700BF0E2005403080044036
:10032000823F04000100002B10D0034014D0034092
:1003300002D0074000E00740A4DDFF1F1039020093
:1003400098C3FF1FA4DDFF1F182A002000B8FF1F5D
:100350000000000000E400E05FE400E008ED00E0E1
:100360000050064000400640448004400000030165
:1003700004800440C010050014E000E0FF76010096
:1003800000002020213E7A5D1CE00340A5C3945A62
:1003900000F00740FFFFFFFFFFFFFFFFFFFFFFFF32
:1003A000FFFFFFFFFFFFFFFFFFFFFFFFFFFFFFFF5D
:1003B000FFFFFFFFFFFFFFFFFFFFFFFFFFFFFFFF4D
:1003C000FFFFFFFFFFFFFFFFFFFFFFFFFFFFFFFF3D
:1003D000FFFFFFFFFFFFFFFFFFFFFFFFFFFFFFFF2D
:1003E000FFFFFFFFFFFFFFFFFFFFFFFFFFFFFFFF1D
:1003F000FFFFFFFFFFFFFFFFFFFFFFFFFFFFFFFF0D
:10040000FFFFFFFFFFFFFFFFFFFFFFFFDEF9FFFF23
:1004100010B5054C237833B9044B13B10448AFF33E
:1004200000800123237010BDA4DDFF1F0000000029
:1004300014390200084B10B51BB108490848AFF346
:1004400000800848036803B910BD074B002BFBD0A0
:10045000BDE81040184700BF00000000A8DDFF1FE6
:1004600014390200A4DDFF1F000000000B2A19D878
:10047000DFE802F012120C0C0C0C0606060606123F
:1004800001EB0011094B53F82100704701EB0011FB
:10049000074B53F82100704701EB0011054B53F84F
:1004A000210070476FF06E00704700BF8CCEFF1FB9
:1004B0008CD0FF1F38CCFF1F002310B4104C4172AA
:1004C000026104600372C36041B1194600E0026931
:1004D00042F82310427A01339A42F8DC094B1A6839
:1004E0000AB90AE01A465369002BFBD15061002378
:1004F00043618380C38010BC70471860F7E700BF7A
:10050000DC2D02004C27002070B50F4D064600245C
:10051000A6424FF0010128780FD004F081FA0021A3
:10052000287804F091FA0134032C05F10105EFD18C
:100530004FF47073013BFDD170BD04F085FA0021CA
:10054000287804F06DFAEEE7C8C4FF1F154B70B5AC
:1005500053F820400D462046134909F095FEE0B1BE
:10056000124B0021204653F8256009F06FFEB8B900
:100570000F49204609F088FE80B90E49204609F04F
:10058000C7FC09F0B1FE0C4BF0610C4953F8250093
:100590000122BDE8704002F01DBA70BD0848F2E7C4
:1005A0000020F0E7042000200000A04138CEFF1F0B
:1005B000A655AC464B24BE4798C4FF1F5D74D105B9
:1005C00080FFFF7F2DE9F04F4FF0000A87B05546BE
:1005D000D0464FF0010B5046A74CA84EFFF794FFB2
:1005E00004F10C070BFA0AF914F8010B04F01EFAD7
:1005F00018B996F8008045EA0905A74206F10106F8
:10060000F2D10AF1010ABAF1030FE4D19C4B9D4AE1
:100610001B6803929845D2F800A000F0B9819A4A6D
:1006200002951778994ACDF8048092F80090DFF887
:100630009CB2DDF80C801D464B460026B946544658
:100640001F461EE0C6F107016FB32A462046FFF79A
:100650000DFF0AEB00037F2BCBF800300AD8E7B17F
:100660002A4620463146FFF701FF6D3002DB884BFA
:10067000F35C23BB0136082E3DD0814BD8F80040F7
:100680001D6805F13C0AB9F1000FDBD18FB12A4694
:1006900031462046FFF7EAFEDBE706EB04147D4B0C
:1006A00053F82400E1E701EB04117A4B53F82100E1
:1006B000CFE706EB0412774B53F82200C9E701217C
:1006C0000D2004F0ADF9DBF8003073481B0403F48F
:1006D000FE03184305F0AEF9704B714953F826003C
:1006E000002202F077F9694B01361F78664B082E1D
:1006F00093F80090C1D1029D664ADDF804803B4624
:100700004F469946AB010493D31802934E4608F125
:100710003C03B9464FF0070A00240193B9F1000FDA
:1007200052D0002E00F0A380424651462846FFF7E3
:100730009DFE019B1F187F2FCBF8007039D8002E2B
:1007400000F0F180424621462846FFF78FFE6D30CB
:100750002FDBB9F1000F40F0BB80032C26DC0C3FEF
:10076000504A514952F82770384609F08DFDE8B1DA
:100770004E4A002152F824300593384609F066FDB0
:10078000002840F011814A49384609F07DFD0028D3
:1007900040F002814749384609F0BAFB4FF07C51DE
:1007A00009F0AEFA09F0A0FD059B9862384BE35CB6
:1007B0009BB90134082C0AF1FF3A35D0324B93F83B
:1007C0000090B9F1000FACD1002E00F0B08042468D
:1007D00021462846FFF74AFEABE701210D2004F031
:1007E0001FF9DBF8003034481B0403F4FE03184300
:1007F00005F020F9DBF8000021460C38FFF7A6FED3
:10080000DBF80030274A28490C3B52F82360304679
:1008100009F03AFD002840F08E801C4B0134082C72
:100820001E780AF1FF3AC9D1002E40F0A280049B45
:10083000184A13445868214B214A1B7810F16D0F58
:10084000B4BF0021012111704BB11E4B1B78002B4E
:1008500000F095801C4B1B78002B00F09080084B1B
:10086000C3F80080039B1D6007B0BDE8F08F029BBA
:1008700053F82A005DE700BF24CCFF1FE0C8FF1F2C
:100880007CE5FF1FC8E8FF1FC9DFFF1F54E8FF1FFB
:1008900064E7FF1FF0C8FF1F0880004098C4FF1FD7
:1008A0006F7C0100042000200000A041D0C8FF1F81
:1008B000A655AC464B243E470990004080E7FF1FF9
:1008C000C8DFFF1F90E5FF1F88CEFF1F50E6FF1F08
:1008D000BAF1030F3FF76AAF0C3F364B364953F876
:1008E0002770384609F0D0FC00283FF45FAF334B47
:1008F0000021384653F82A9009F0A8FC002855D169
:100900002F49384609F0C0FC002851D12D493846FE
:1009100009F0FEFA4FF07C5109F0F2F909F0E4FC1D
:10092000C9F8280042E7029B53F824000FE7029B16
:1009300053F82400FDE6244B244853F824704FF666
:10094000FF733B62314609F097FB4FF07C5109F091
:10095000D7F909F0A3FC1E49B0F5067F4FF000025D
:10096000A8BF4FF40670012378830E78BA833B76D4
:100970001FE7424601212846FFF778FD5BE76D300F
:10098000144B0BDB14491868012202F023F866E7C8
:1009900055457FF444AE67E7104805E710491868ED
:1009A000002202F017F85AE74846FDE60020B7E7B4
:1009B0000A48B5E7042000200000A041D0C8FF1F6E
:1009C000A655AC464B243E47F4CBFF1FA6552C47FB
:1009D00054E8FF1F30CCFF1FB6B81D00C0FFFF3F1B
:1009E000DFF8020007282DD8DFE800F0090E131801
:1009F0001D222704144B1549D86902F0EDBC124B97
:100A00001349186802F0E8BC0F4B1249586802F00D
:100A1000E3BC0D4B1049986802F0DEBC0A4B0F494D
:100A2000D86802F0D9BC084B0D49186902F0D4BC53
:100A3000054B0C49586902F0CFBC034B0A49986931
:100A400002F0CABC704700BF68CEFF1FD0A00100F3
:100A50004874010038DD000034AE00003CF90000AD
:100A600040160100CC970100C43F010008B50E4BB1
:100A70000E491A780E4B012A18680AD0002201F09C
:100A8000A9FF0C4B094918680122BDE8084001F094
:100A9000A1BF01F09FFF074B044918680022BDE881
:100AA000084001F097BF00BFCCC8FF1FDFF802006D
:100AB0007CC4FF1F98D2FF1F08B501210D2003F051
:100AC000AFFF642003F0C6FF00210D2003F0A8FF54
:100AD000642003F0BFFF01210D2003F0A1FF64207B
:100AE00003F0B8FF00210D2003F09AFF642003F00B
:100AF000B1FF01210D2003F093FF642003F0AAFF52
:100B000000210D2003F08CFFC82003F0A3FF01217A
:100B10000D2003F085FF642003F09CFF00210D20D1
:100B200003F07EFF642003F095FF01210D2003F008
:100B300077FF642003F08EFF0D20002103F070FF8B
:100B40006420BDE8084003F085BF00BFFFFFFFFF42
:100B50002DE9F84301210D2003F076FFA64CFFF7A5
:100B6000ABFF04F10C0514F8010B022103F06CFF3C
:100B7000AC42F8D1A14CE61C2546012114F8010B2A
:100B800003F062FF2878002103F04AFFA642F3D168
:100B90009B4C6FF0440504F50076284608F044FDB0
:100BA00002460B4692A1D1E9000107F035FB002275
:100BB000944B08F09FFD09F04DF844F8040FB4423F
:100BC00005F10105E9D10221182003F03DFF322192
:100BD0008D488E4E8E4D8F4C8F4F05F01FFA02219F
:100BE0008E4802F031FA44F21E538D4A8D498E48E8
:100BF000DFF894C2DFF894E2B361F36133627362A9
:100C00008A4E9361D361136253624FF40042AB6129
:100C1000EB612B626B62A361854DE36123626362CA
:100C20008B61844CCB610B624B628361C361BB619E
:100C3000FB613B627B62CCF81820CCF81C20CCF81E
:100C40002020CEF81820CEF81C20CEF820200362F9
:100C5000366843627849AA613046EA612A626A626C
:100C6000A261E2612262626209F00EFB28BB734955
:100C7000304609F0EBFA002840F01C814FF08F411C
:100C8000304609F045F909F009FB6D4C6A49A0614D
:100C9000304609F0F9FA002840F01D8167493046D6
:100CA00009F0D4FA002840F009814FF08F41304616
:100CB00009F02EF909F0F2FA02E0614C6148A061F6
:100CC000614BE0611D685C49284609F0DDFA40B9D6
:100CD0005A49284609F0BAFA002800F0E3805B4838
:100CE00000E058485A4B20621D685349284609F0D5
:100CF000CBFA28BB5149284609F0A8FA002840F051
:100D0000CF804FF08F41284609F002F909F0C6FA6A
:100D1000504C4949A061284609F0B6FA002840F035
:100D2000D8804649284609F091FA002840F0C4804E
:100D30004FF08F41284609F0EBF809F0AFFA02E0D6
:100D4000444C4048A06144F21E524FF40043E0611D
:100D500064202262636203F07DFE3F4B3F4A1B68C2
:100D60003F4840499861D96110683F493F4D002292
:100D700001F030FE3E4B3F4A1B68166846F2656143
:100D8000002201271983DA6190469F8505F1100939
:100D900055F8044B0021C4F81C80A785304609F0A3
:100DA00055FA4FF07E5108BB304609F06DFA002825
:100DB0006ED047F6FF704D452083E9D12E4B2A496E
:100DC0001A782E4B012A18687AD0002201F002FE10
:100DD0002B4B25491868012201F0FCFD294B2249C3
:100DE00018680022BDE8F84301F0F4BD0020E2E7F6
:100DF000000000A08FF3F03F24CCFF1FC8C4FF1FEA
:100E00000020002000807B400082FF1F18E6FF1FAB
:100E100068FFFF1F9CE6FF1FE0E5FF1F94E5FF1F33
:100E200054E6FF1F1CE8FF1F6404002090C4FF1F4E
:100E30009C0400209CE7FF1F00FEFF4600FEFFC64B
:100E4000D4E7FF1F0000FF7F94D2FF1F0000018046
:100E500080C4FF1F2C04002094C4FF1F8CC4FF1FFC
:100E600048AC00019CAB00015D74D105D0C8FF1FE8
:100E7000ECC8FF1FF0CAFF1FCCC8FF1F7CC4FF1FB8
:100E800098D2FF1F30CCFF1F30FFFF1FF40300205C
:100E90001249304609F03CF809F000FA00B28AE73E
:100EA0000F4835E74FF08F41284609F031F809F037
:100EB000F5F917E70A48E8E6094844E70848FFE675
:100EC00001F088FD074B08491868002201F082FDF7
:100ED00084E7064837E70548F2E600BF00FEFF4614
:100EE0000000018098D2FF1F5D74D1050000FF7FD4
:100EF0002DE9F84F4FF0FF3425464FF000084046EB
:100F0000FFF702FBAC4F002617F8010B03F08EFD34
:100F1000002808BF354606F1010608BF44460C2EDE
:100F2000F2D108F10108B8F1030FE8D1A34EA44FA4
:100F300033689D4224D06B1C04D03CB1012C37D0C7
:100F4000022C22D035603C60BDE8F88F6B1E092B67
:100F5000F8D801A252F823F01B110000450F000041
:100F6000450F00005B100000E3100000F5100000CA
:100F7000C70F0000171000003510000029110000F5
:100F80003B689C42D7D1BDE8F88F2B1F052BD9D8E1
:100F900001A252F823F000BF1B130000031300004E
:100FA000B51200003F130000450F0000A71200001B
:100FB0002B1F052BC6D8DFE813F02D01EF00BE0074
:100FC0006D015E016501DFF838927E49D9F8008035
:100FD000404609F059F930B140467B4908F08EFE91
:100FE0008046C9F800007949404609F04DF90028CB
:100FF00040F0AD817649404609F028F9002840F0DC
:10100000B0814FF08F41404608F082FF09F046F969
:10101000704B186296E7704B1A78002A0CBF0122B9
:1010200000221A708ED06D4B6D491868002201F0B5
:10103000D1FC87E7DFF8C891D9F800804FF07E51E6
:10104000404609F003F90028CDD040465E4908F03B
:1010500057FE8046C9F80000C5E7DFF8A891594956
:10106000D9F80080404609F00FF930B140465649A2
:1010700008F044FE8046C9F800005449404609F093
:1010800003F9002840F065815149404609F0DEF837
:10109000002840F068814FF08F41404608F038FF4B
:1010A00009F0FCF8DFF86091C9F81800474940469C
:1010B00009F0EAF8002840F096814549404609F0D9
:1010C000C5F8002840F04B814FF08F41404608F0B2
:1010D0001FFF09F0E3F8C9F81C0035603C60BDE86B
:1010E000F88F404A1378B3FA83F35B091370FFF764
:1010F000BDFC27E7DFF80C91D9F800804FF07E5156
:10110000404609F0A3F80028B7D040462E4908F021
:10111000F7FD8046C9F80000AFE7334A1378B3FA09
:1011200083F35B0913700DE7304A1378B3FA83F346
:101130005B09137006E7DFF8D4902D49D9F80080D9
:10114000404609F083F830B140461F4908F0D8FD09
:101150008046C9F80000DFF8B89009F1100B0021B3
:10116000404659F804AB09F071F8002840F01381AB
:101170004FF07E51404609F087F8BAF91830002840
:1011800000F0118147F6FF70002B00F00081CB4585
:10119000AAF81800E3D1D5E6164B1A78002A0CBF3E
:1011A000012200221A703FF4CDAE134B1349186888
:1011B000002201F00FFCC5E624CCFF1F90D2FF1FD8
:1011C00034CCFF1FCDCC4C3ECDCCCC3D00FEFF46F9
:1011D00000FEFFC6D4E7FF1F8CD2FF1F8CC4FF1F89
:1011E0002D6E0700CCC8FF1F54E8FF1FC9DFFF1F8B
:1011F0006666663F80E7FF1F30CCFF1FDFF8020006
:1012000094D2FF1F80C4FF1F2C040020F0CAFF1FD0
:10121000D0C8FF1FDFF820927C49D9F800804046F3
:1012200009F032F830B14046794908F067FD804650
:10123000C9F80000DFF8049209F1100B00214046C4
:1012400059F804AB09F002F8002840F08E804FF006
:101250007E51404609F018F8BAF91830002800F01D
:10126000B38047F6FF70002B00F08780CB45AAF8CB
:101270001800E3D166E6674A1378B3FA83F35B0993
:1012800013705FE6644A1368322B7FF65BAE053B52
:10129000136057E6604A1368B3F5967FBFF452AE09
:1012A000053313604EE65D4A13680E2BDCBF013335
:1012B000136047E6DFF88891D9F800804FF07E513F
:1012C000404608F0C3FF30B14046514908F018FDD0
:1012D0008046C9F800005249404608F0D5FF002872
:1012E0005BD15049404608F0B1FF00286AD14FF069
:1012F0008F41404608F00CFE08F0D0FFDFF8449123
:10130000D2E6494A1378002B0CBF0121002111704D
:101310007FF418AE454A136014E6DFF824913B4988
:10132000D9F80080404608F0AFFF0028D3D04046EF
:10133000374908F0E3FC8046C9F80000CBE7374A9C
:101340001368002B7FF7FEAD013B1360FAE53848C8
:101350005EE6DFF8F4903648C9F81800BBE6354879
:10136000B9E6344854E633489CE600207EE7404620
:1013700008F0CEFD08F092FF00B20023CAF81C303E
:1013800074E7404608F0C4FD08F088FF00B200236F
:10139000CAF81C30FBE60020F9E6DFF8A8902448E4
:1013A000C9F8180097E643BB0021404608F044FF07
:1013B0001B490028E5D0404608F0AAFD08F06EFF62
:1013C00000B2E4E61B4899E77BB90021404608F0EB
:1013D00033FF13490028CAD0404608F099FD08F0B1
:1013E0005DFF00B242E7124875E60D49404608F03D
:1013F0008FFD08F053FF00B238E70949404608F076
:1014000087FD08F04BFF00B2C1E600BFCDCC4C3EDB
:10141000CDCCCC3D88CEFF1F78C4FF1F88E7FF1FCF
:1014200000FEFF4600FEFFC690E5FF1F70DFFF1FB6
:101430000000FF7F00000180F0CAFF1FD0C8FF1F1F
:1014400090C4FF1FD4E7FF1F2C0400202DE9F04FAC
:10145000B64BDFF858A31B6885B00393B44B039ACF
:101460001B68CAF80020D31A032B00F2A480B14BEA
:101470001B78002B00F09780AF4EB04A3168DAF845
:10148000003012685B1A9342C0F08D80AC4DAD4FB6
:10149000AD4C4FF0000804E008F10108B8F1080F66
:1014A00012D03B68226805EB0311C8F107038A5C80
:1014B00042FA03F3DB07EFD5404608F10108FFF7D6
:1014C00091FAB8F1080FECD1A04B1B788BB1A04B6F
:1014D0001B7843B19F4B3968226803EB01139B5C77
:1014E000002B40F08C819C4B9C491868002201F035
:1014F00071FA9B4B1B78002B45D0954B1B78002B2A
:1015000000F0F88039682368964A03EB011352F81B
:10151000233013F16D0FC0F2ED809349934A0868B0
:10152000934903EB0013086852F82330914A92491B
:101530000344243352F82380404608F0A5FEE0B16E
:101540008E4B00214046D3F8009008F07FFE002823
:1015500040F05E818A49404608F096FE002840F03F
:1015600055818849404608F0D3FC4FF07C5108F083
:10157000C7FB08F0B9FEC9F82800834B83491868F7
:10158000012201F027FA2368DAF8002032600133E3
:10159000102B236005D03A6805EB0215EB5CFF2B9E
:1015A00001D100232360002004F0ACFA0028FAD116
:1015B00005B0BDE8F08F0D20002103F031FA1820AE
:1015C00003F034FA002800F09280FEF7FBFFDFF80A
:1015D000E0816F4F002518F8010F03F0F9FA17F8B2
:1015E000013F6C4AB0F5966FD4BF00240124A3429A
:1015F000147073D0684B1B78002B00F082805C4B1A
:10160000DFF8B0B11A68DFF860919BF800600093D2
:10161000D9F8000002F13C03C5F10701002E00F0EB
:10162000CB800193FEF722FF019B5C4E03447F2B8E
:10163000336052D89BF80030D9F80000002B00F03E
:10164000C180009B29461A68FEF710FF6D3044DB0D
:1016500001210D2003F0E4F94E4B93F800901C4655
:10166000B9F1000F00F0BA8033684D481B0403F451
:10167000FE03184304F0DEF9306829460C38FEF703
:1016800065FF33683B4A3C490C3B52F823603046C7
:1016900008F0FAFD002800F0B080424B424853F8B1
:1016A00025904FF6FF73C9F82030314608F0E4FC6E
:1016B0004FF07C5108F024FB08F0F0FDB0F5067FF8
:1016C0004FF00002A8BF4FF4067001232478A9F858
:1016D0001A00A9F81C2089F818303C700135082D33
:1016E0007FF479AF124ADAF800301360BFE6FFF7F3
:1016F000FFFB6CE7244B19491868002201F06AF9D6
:1017000041E71B4BDFF8ACB01A68DFF85C909BF840
:1017100000100093D9F8000002F13C03002957D0D3
:1017200029460193FEF7A2FE019B7EE7D02500200B
:101730005CE3FF1F90E5FF1F84E7FF1F78C4FF1FD6
:10174000E02D020088E7FF1F70DFFF1F88CEFF1F1C
:10175000C8DFFF1FF4CAFF1F30CCFF1F2D6E07002C
:101760008CD2FF1FCCC4FF1FC8E8FF1FF0C8FF1FAB
:101770007CE5FF1F042000200000A041ECC8FF1FF3
:10178000A655AC464B243E478CC4FF1F5D74D10563
:1017900063E7FF1F58DEFF1FC9DFFF1F50E6FF1F73
:1017A00009900040F4CBFF1FA6552C47B4DFFF1F64
:1017B00083C4FF1F54E8FF1F01EB0011154A52F8C4
:1017C000210032E705EB0010124B53F820003DE7F3
:1017D00005EB00100F4A52F8200026E733680E4848
:1017E0001B0403F4FE03184304F024F90B4B0C49CB
:1017F00053F825004A4601F0EDF824786DE7094BCF
:1018000009491868012201F0E5F872E60748B2E6D6
:101810000020B0E6F0C8FF1F0880004098C4FF1FFA
:101820006F7C010030CCFF1F929B9400C0FFFF3FF4
:101830002DE9F04F002283B0BB4BBC480193114609
:10184000FEF73AFEB94BDFF878A3B948C3F800A019
:1018500000224FF480491146C3F82090FEF72CFE79
:10186000B34BB448C3F800A000221146C3F820903F
:10187000FEF722FEAF4BB048C3F800A0002211468D
:10188000C3F82090FEF718FEAB4BAC48C3F800A09D
:1018900000221146C3F82090FEF70EFEA74BA84881
:1018A000C3F800A000221146C3F82090FEF704FE02
:1018B000A34BA448C3F800A000221146C3F820900F
:1018C000FEF7FAFD9F4BA048C3F800A00022114686
:1018D000C3F82090FEF7F0FD00229B4B9B48C3F815
:1018E00000A011461446C3F82090FEF7E5FD974B83
:1018F000DFF8D0829648C3F80080224621461C7645
:10190000FEF7DAFD924B9348C3F800802246214649
:101910001C76FEF7D1FD8F4B8F48C3F8008022461E
:1019200021461C76FEF7C8FD8B4B8C48C3F800801F
:10193000224621461C76FEF7BFFD884B8848C3F837
:101940000080224621461C76FEF7B6FD844B854872
:10195000C3F80080224621461C76FEF7ADFD814B80
:101960008148C3F80080224621461C76FEF7A4FD7C
:10197000019BDFF854B27D4D7D4E7E4F18467A4B69
:1019800022462146C3F800801C76FEF795FD019B98
:101990007948C3F800B0224621461C835C83DC6191
:1019A0001C629C629C85DC851C63FEF785FD724B86
:1019B0007248C3F800B0224621461C835C83DC6178
:1019C0001C629C629C85DC851C63FEF775FD6B4B7D
:1019D0006B48C3F800B0224621461C835C83DC615F
:1019E0001C629C629C85DC851C63FEF765FD644B74
:1019F00064481D602246214683F82640FEF75CFDC0
:101A0000604B61481D602246214683F82640FEF760
:101A100053FD5D4B5D48C3F800B0224621461C8350
:101A20005C83DC611C629C629C85DC851C63FEF728
:101A300043FD564B56481D602246214683F82640FA
:101A4000FEF73AFD524B53481D602246214683F86B
:101A50002640FEF731FD4F4B4F481D602246214680
:101A600083F82640FEF728FD4B4B4C481D6022466C
:101A7000214683F82640FEF71FFD484B48481D606D
:101A80002246214683F82640FEF716FD454B03F11A
:101A900024021846424B01211D6083F82640FEF7C0
:101AA0000BFD414B03F1240218463E4B4FF0FF352E
:101AB00001211E609D61FEF7FFFC3C4B03F12402F7
:101AC0001846394B01211E609D61FEF7F5FC374B2E
:101AD00037481E60224621469D61FEF7EDFC354BDE
:101AE00003F124021846324B0121C3F800B01C83D5
:101AF0005C83DC611C629C629C85DC851C63FEF758
:101B0000DBFC2D4B03F1240218462A4B01211E60F9
:101B10009D61FEF7D1FC294B03F124021846264BA8
:101B200001211E609D6151E060E3FF1F88E1FF1FFE
:101B3000ACE1FF1FD0E1FF1FF4E1FF1F18E2FF1F20
:101B4000E8DDFF1F0CDEFF1F58E8FF1F8CE9FF1FB9
:101B5000E0EDFF1F34F2FF1F88F6FF1FDCFAFF1FC6
:101B60001405002078090020A0FFFF1F2035020087
:101B7000F03402000835020094E3FF1FC8E3FF1FA2
:101B800064E4FF1F0CE0FF1FFCE3FF1F8CE4FF1F5A
:101B9000B4E4FF1FDCE4FF1F04E5FF1F2CE5FF1F7B
:101BA00054E5FF1FA0E8FF1F3CE2FF1F64E2FF1F98
:101BB00030E4FF1FDCE8FF1F8CE2FF1F24E9FF1F5A
:101BC000383502002C35020044350200FEF774FC63
:101BD000CB4B03F124021846CA4B01211E609D61C4
:101BE000FEF76AFCC84B03F124021846C44B0121DE
:101BF0001E609D61FEF760FCC44B03F1280218468D
:101C0000C14B04211E609D61FEF756FCC04B03F1E1
:101C100028021846BD4B4FF4803B04211F60C3F8D7
:101C200018B0C3F81CB0C3F820B0C3F824B0FEF756
:101C300043FCB74BB7481F6022462146C3F818B093
:101C4000C3F81CB0C3F820B0C3F824B0FEF734FCCE
:101C5000B04BB148C3F800A022462146C3F82090FB
:101C6000FEF72AFCAD4B03F134021846AA4B0221C1
:101C7000C3F800A0C3F82090FEF71EFCA74BA849AC
:101C8000A84819609861A84AA848DA614FF48051C1
:101C90001962586222462146A5489C62DC621C6398
:101CA000FEF70AFCA24BA348C3F800A02246214637
:101CB000C3F82090FEF700FC9E4B9F48C3F800A09D
:101CC00022462146C3F82090FEF7F6FB9A4B9B482C
:101CD000C3F80080224621461C76FEF7EDFB974BA9
:101CE0009748C3F80080224621461C76FEF7E4FBA5
:101CF000934B9448C3F80080224621461C76FEF799
:101D0000DBFB914BDFF884A2DFF8849203F124021D
:101D100018468C4B0121C3F800801C76FEF7CCFBE3
:101D20008A4BDFF8708203F128021846864B0421A3
:101D30001E609D61FEF7C0FB854B03F1240218462F
:101D4000824B01211F60C3F818B0C3F81CB0C3F860
:101D500020B0C3F824B0FEF7AFFB7E4B03F12402A2
:101D600018467B4B01211E609D61FEF7A5FB7A4B57
:101D700003F124021846774B01211E609D61FEF796
:101D80009BFB764B03F128021846734B04211E601F
:101D90009D61FEF791FB724B03F1280218466F4BD1
:101DA00004211F60C3F818B0C3F81CB0C3F820B0FA
:101DB000C3F824B0FEF780FB6A4B03F128021846F3
:101DC000674B04211F60C3F818B0C3F81CB0C3F8F8
:101DD00020B0C3F824B0FEF76FFB634B03F1280279
:101DE0001846604B04211F60C3F818B0C3F81CB03C
:101DF000C3F820B0C3F824B0FEF75EFB5B4B03F1E1
:101E000028021846584B04211F60C3F818B0C3F8C5
:101E10001CB0C3F820B0C3F824B0FEF74DFB544B00
:101E200003F128021846514B04211F60C3F818B073
:101E3000C3F81CB0C3F820B0C3F824B0FEF73CFBD5
:101E40004C4B03F128021846494B04211F60C3F88C
:101E500018B0C3F81CB0C3F820B0C3F824B0FEF724
:101E60002BFB454B03F124021846424B01211F6016
:101E7000C3F818B0C3F81CB0C3F820B0C3F824B03E
:101E8000FEF71AFB3D4B03F1280218463A4B04219A
:101E90001E609D61FEF710FB394B03F124021846CA
:101EA000364B01211F60C3F818B0C3F81CB0C3F84B
:101EB00020B0C3F824B0FEF7FFFA324B03F128023A
:101EC00018462F4B04211E609D61FEF7F5FA2D4B3D
:101ED0000AF12402012150461F60C3F818B0C3F86C
:101EE0001CB0C3F820B0C3F824B0FEF7E5FA264BC7
:101EF000CAF8006003F12402184601214CE000BF3B
:101F0000B4E2FF1F24E9FF1FDCE2FF1FE0E5FF1F33
:101F100018E6FF1F98DEFF1F7CE8FF1F5CDEFF1F37
:101F2000FC34020000B28E04E8728E0480F9855AF7
:101F3000E4DEFF1F14E1FF1F20120020CC0D002063
:101F400094160020E81A0020DC1F002030FFFF1F3D
:101F500030DEFF1FBCDEFF1F38DFFF1F54E6FF1F10
:101F60009CE6FF1F68FFFF1F640400201CE8FF1FA2
:101F70009C0400209CE7FF1FB41F0020F4030020F6
:101F800004E3FF1FD4E7FF1F7C1F0020C0DDFF1FFD
:101F9000E4E6FF1F2C040020CAF81850FEF78CFA64
:101FA000314B08F12802042140461E609D61022643
:101FB000FEF782FA2D4D89F8096009F11801C8F879
:101FC00000702246C8F818B0C8F81CB0C8F820B095
:101FD000C8F824B0204689F80840C9F80C40C9F870
:101FE0001010C9F800504E46019B00E0316941F8DD
:101FF000220099F809101E4C01329142F6DC1D4E68
:10200000316811B900F058BC11464A69002AFBD169
:10201000C1F81490184F194A154801930024C9F8C3
:102020001440A9F80440A9F80640C9F8002004F0BB
:102030008BFB01203D6007F11805224621463C72CA
:10204000FC6078723D61BE46019B01E0DEF81050F5
:1020500045F82210787A084C01329042F6DC31685B
:10206000044A71B900F02BBC7C1F0020DC2D02005B
:10207000E4E6FF1F4C27002094E5FF1FF436020022
:1020800011464A69002AFBD14F610026A54AA6489D
:102090007E61BE80FE8001933A6000F011FFA34A8A
:1020A000A34B13601046A34B167253605672D66052
:1020B00004F098F8A04AA14B13601046A04B16728A
:1020C00053605672D66004F08DF89E4A9E4B1360A2
:1020D00010469E4B167253605672D66004F082F81A
:1020E0009B4A9C4B136010469B4B16725360567272
:1020F000D66004F077F8994A994B13601046994BD3
:10210000167253605672D66004F06CF8964A974B7C
:1021100013601046964B167253605672D66004F0E8
:1021200061F8944A944B13601046944B16725360B6
:102130005672D66004F056F8914A924B13601046DE
:10214000914B167253605672D66004F04BF88F4A6A
:102150008F4B136010468F4B167253605672D660C9
:1021600004F040F88C4A8D4B136001241046894BD3
:1021700016725360D660547204F034F8884A894B62
:10218000136002251046834B16725360D660557259
:1021900004F028F8844A854B13604FF0030B104677
:1021A0007C4B16725360D66082F809B004F01AF8BE
:1021B0007F4A804B136010467F4B167253605672F5
:1021C000D66004F00FF87D4A7D4B136010467A4BC1
:1021D000167253605472D66004F004F8794A7A4B50
:1021E00013601046744B167253605572D66003F03C
:1021F000F9FF764A764B136010466F4B16725360A8
:1022000082F809B0D66003F0EDFF724A019B1360BB
:102210001046714B167253605672D66003F0E2FF9F
:102220006E4B6F4A1A6018466B4A1E725A605C7297
:10223000DE6003F0D7FF6B4B6B4A1A601846664AA4
:102240001E725A605D72DE6003F0CCFF674B684A15
:102250001A601846674A1E725A605E72DE6003F0AA
:10226000C1FF654B654A1A601846624A1E725A6081
:102270005C72DE6003F0B6FF614B624A1A6018467A
:10228000554A1E725A6083F809B0DE6003F0AAFF57
:102290005D4B5E4A1A601846564A1E725A605D725D
:1022A000DE6003F09FFF5A4B5A4A1A601846514AA3
:1022B0001E725A6083F809B0DE6003F093FF564B3C
:1022C000564A1A601846564A1E725A605E72DE609E
:1022D00003F088FF534B544A1A601846504A1E7246
:1022E0005A605C72DE6003F07DFF504B504A1A600A
:1022F00018464B4A1E725A605D72DE6003F072FF30
:102300004C4B4D4A1A601846454A1E725A6083F873
:1023100009B0DE6003F066FF484B064A1A601846B3
:102320008EE000BF1435020094E5FF1FECDFFF1FB5
:1023300088E1FF1FA0E8FF1FFCDFFF1FACE1FF1FCC
:102340003CE2FF1F70E7FF1FD0E1FF1F64E2FF1FA9
:1023500034E0FF1FF4E1FF1FDCE8FF1F44E0FF1F34
:1023600018E2FF1F8CE2FF1F3C1F0020E8DDFF1F6B
:1023700024E9FF1F54E0FF1F0CDEFF1FB4E2FF1F24
:1023800064E0FF1F58E8FF1FDCE2FF1F74E0FF1F3F
:102390008CE9FF1F54E6FF1F0CE8FF1FE0EDFF1F55
:1023A000A4DFFF1F34F2FF1F84E0FF1F88F6FF1F2A
:1023B00094E0FF1FDCFAFF1F9CE6FF1FA4E0FF1F55
:1023C00014050020DCDFFF1F78090020B4E0FF1FA8
:1023D000A0FFFF1FC4E0FF1F64040020D4E0FF1F24
:1023E00094E3FF1FE4E0FF1FC8E3FF1F84160020F3
:1023F00064E4FF1F9C04002074DFFF1F0CE0FF1F3C
:1024000080E5FF1FFCE3FF1F4C1F00208CE4FF1F33
:102410006C1F0020B4E4FF1FA41F0020DCE4FF1F9A
:102420009CE7FF1FB0E5FF1F04E5FF1FC0E5FF1F8E
:102430002CE5FF1FD0E5FF1F54E5FF1FF4E0FF1F51
:10244000A54A1E725A605E72DE6003F0CBFEA34B9B
:10245000A34A1A601846A04A1E725A605C72DE6077
:1024600003F0C0FE9F4BA04A1A6018469A4A1E729B
:102470005A605D72DE6003F0B5FE9C4B9C4A1A60A8
:1024800018469C4A1E725A605E72DE6003F0AAFE15
:10249000994B9A4A1A6018468F4A1E725A6083F8FE
:1024A00009B0DE6003F09EFE954B964A1A6018460E
:1024B000954A1E725A605E72DE6003F093FE934B83
:1024C000934A1A601846904A1E725A605C72DE6027
:1024D00003F088FE8F4B904A1A6018468A4A1E7293
:1024E0005A605D72DE6003F07DFE8C4B8C4A1A6090
:1024F0001846854A1E725A6083F809B0DE6003F000
:1025000071FE884B744A1A601846874A1E725A60D8
:102510005E72DE6003F066FE844B7B4A1A601846EA
:10252000814A1E725A605C72DE6003F05BFE804B73
:10253000804A1A601846804A1E725A605E72DE60D7
:1025400003F050FE7D4B7E4A1A6018467D4A1E728B
:102550005A605E72DE6003F045FE7B4B654A1A608E
:1025600018467A4A1E725A605E72DE6003F03AFEC6
:10257000774B784A1A601846774A1E725A605E7224
:10258000DE6003F02FFE754B754A1A601846754AD7
:102590001E725A605E72DE6003F024FE724B734A54
:1025A0001A601846724A1E725A605E72DE6003F04C
:1025B00019FE704B704A1A6018466D4A1E725A60B6
:1025C0005C72DE6003F00EFE6C4B6D4A1A601846BA
:1025D000674A1E725A605D72DE6003F003FE694B4B
:1025E000694A1A601846624A1E725A6083F809B036
:1025F000DE6003F0F7FD654B4F4A1A601846644AE7
:102600001E725A605E72DE6003F0ECFD614B464A5A
:102610001A601846604A1E725A605E72DE6003F0ED
:10262000E1FD5E4B474A1A601846594A1E725A60CD
:102630005C72DE6003F0D6FD594B474A1A601846BB
:10264000534A1E725A605D72DE6003F0CBFD554B3B
:10265000444A1A6018464E4A1E725A6083F809B0FE
:10266000DE6003F0BFFD504B504A1A601846504AD6
:102670001E725A605E72DE6003F0B4FD4D4B4E4A2E
:102680001A6018464A4A1E725A605C72DE6003F095
:10269000A9FD4A4B3E4A1A601846234A1E725A60E8
:1026A0005D72DE6003F09EFD454B464A1A60184697
:1026B000454A1E725A605E72DE6003F093FD434B22
:1026C0002B4A1A6018463A4A1E725A605D72DE60E2
:1026D00003F088FD7CE000BFE0E5FF1F04E9FF1F79
:1026E0003CE2FF1F14E9FF1F64E2FF1FCCE8FF1F5D
:1026F00030E4FF1F5CDEFF1F4CE9FF1FDCE8FF1F1B
:102700005CE9FF1F8CE2FF1F18E6FF1F6CE9FF1F4B
:1027100024E9FF1F7CE9FF1FB4E2FF1FF40400203F
:10272000DCE2FF1FE404002030FFFF1F040500204F
:1027300004E1FF1F98DEFF1FDC1F00208CE6FF1F57
:102740007CE8FF1F30DEFF1F48E1FF1FB41F0020A1
:1027500068E1FF1FE4DEFF1FBCDEFF1F54E7FF1F21
:1027600014E1FF1F38DFFF1FB8DFFF1F201200201A
:102770001CE8FF1FCCDFFF1FCC0D002008DFFF1F70
:10278000941600208CE7FF1FE81A002018DFFF1FB7
:1027900068FFFF1F7416002004E3FF1F38E1FF1FCE
:1027A000D404002058E1FF1F4CE3FF1F54E6FF1F35
:1027B000F403002078E1FF1F9CE6FF1F5C1F002050
:1027C00068090020640400207C1F002094DFFF1FA4
:1027D0003C4B3D4A1A6018463C4A1E725A605E7273
:1027E000DE6003F0FFFC3A4B3A4A1A601846374A5B
:1027F0001E725A605C72DE6003F0F4FC364B374A9E
:102800001A601846314A1E725A605D72DE6003F02B
:10281000E9FC334B334A1E72184683E804045E72A7
:10282000DE6003F0DFFC304B304A1E72184683E84E
:1028300004015E72DE6003F0D5FC2D4B234A83F861
:1028400009B0184683E804011E72DE6003F0CAFC7A
:10285000284B18461E72C3F800A0C3F804805C72AF
:10286000DE6003F0BFFC244B244A5D72184683E807
:1028700004011E72DE6003F0B5FC214B18461E7287
:10288000C3F800805F605E72DE6003F0ABFC1D4B3E
:1028900018461E7283E800035E72DE6003F0A2FC3D
:1028A000194B18465C7283E800031E72DE6003B0A9
:1028B000BDE8F04F03F096BC3460FFF7ABBB14608B
:1028C000FFF7E3BB14E7FF1F9C040020D4E7FF1FC2
:1028D00084DFFF1F9CE7FF1FD4E6FF1FB41F00200B
:1028E0002CE3FF1FF403002004E7FF1F04E3FF1F96
:1028F0003CE3FF1F24E7FF1F34E7FF1F7C1F00207E
:1029000044E7FF1F28DFFF1F60DFFF1F2DE9F84F9F
:102910008469002C40D0631C06464FF0000147D06C
:1029200003F03EFC834600283BD0D6F81CE096F826
:102930002050274F02300BF5817804E0964534D2C1
:10294000744480451DD0230E5A1C37F9139037F973
:10295000121030F9022FC4F30F2ACAF5803309FB95
:1029600003F30AFB01331B1402FB03F3DB13E24303
:102970000380002DE2D1A64515D28045CEEB04049C
:10298000E1D13046B4610022594603F0E3FB5846DA
:10299000BDE8F84F03F0BABB214603F0F5FB002871
:1029A000F6D1BDE8F88F2C46CBE74FF0FF34C8E7EF
:1029B00003F0EAFB04460028F3D03046214600220B
:1029C00003F0C8FB2046BDE8F84F03F09FBB00BFF3
:1029D000E432020072B683694BB1013304BF6FF079
:1029E00001038361C16180F8202062B67047012332
:1029F0008361C16180F8202062B670472DE9F04FF5
:102A000083B08846846A0190D0F81CC0D0F824A016
:102A1000C16A076BDDF8309008F580702646834662
:102A200038F902EB4FEA0E3E5CFB17F401EB84042D
:102A30005AFB17F57644C4EB6606A6EB85065CFBED
:102A400016F007EB80005CFB10F104EB81015AFBF0
:102A500010F5C1EB0E07A7EB85055CFB15F700EB46
:102A600087070C4424F34F34384420F34F30354467
:102A700025F34F35C34522F8024B764623F8020B67
:102A800029F8025BCCD1019A1346C3F828E0D16241
:102A9000176303B0BDE8F08F2DE9F04F85B088468D
:102AA0008169019101460C460390006A0290D1F8B9
:102AB00024B08F6A206BC96ADDF838A0DDF83C903D
:102AC00008F58074009432F9026B029C06FB04F650
:102AD00026F0784505F10065ED0055FB15F5284C0D
:102AE00055FB14F5ED00013CF616C6F106062C4424
:102AF0003441019D55FB14F4224D38F902CBAC4210
:102B0000A8BF2C4624024FEA0C3C54FB10F601EB04
:102B100086065BFB10F107EB0C0EC6EB6E0EAEEB00
:102B2000810E54FB1EF500EB850554FB15F106EBF9
:102B300081015BFB15F0C1EB0C07A7EB800754FB91
:102B400017F405EB84000E4426F34F36054425F3B5
:102B50004F35BE442EF34F3E009C23F8026B444594
:102B60002AF8025B674629F802EBACD1039A1346B8
:102B7000C3F828C0D162106305B0BDE8F08F00BF74
:102B8000ABAAAA2AE71052002DE9F043002183B036
:102B9000044603F0F9FA01210546204603F0F4FA51
:102BA0000646002D3CD003F065FA074600283CD0CD
:102BB00003F060FA8046002842D003F05BFA8146B9
:102BC000002851D0002E45D0021D08F104030192C7
:102BD000009320463B1D321D291DFFF75DFF304647
:102BE00003F094FA284603F091FA00223946204671
:102BF00003F0B0FA384603F089FA01224146204634
:102C000003F0A8FA404603F081FA20460222494622
:102C100003F0A0FA484603B0BDE8F04303F076BAEB
:102C20000028F8D103B0BDE8F083284603F06EFA1F
:102C3000002EF7D0304603B0BDE8F04303F066BA8B
:102C4000284603F063FA384603F060FA002EE9D014
:102C50003046F0E7031D00933A1D08F10403291DD7
:102C60002046FFF7CBFEBDE7284603F04FFA384673
:102C700003F04CFA404603F049FA002ED2D0304619
:102C8000D9E700BF10B5044603F082FB204610BD13
:102C9000024A0349034807F047BB00BF74C4FF1F43
:102CA000852C00000422002038B5074D074C084849
:102CB0002A46214607F038FB2A4621460548BDE84A
:102CC000384007F031BB00BF74C4FF1F852C0000E3
:102CD0000C22002014220020024A0349034807F076
:102CE00023BB00BF74C4FF1F852C00001C220020E2
:102CF000024A0349034807F017BB00BF74C4FF1F13
:102D0000852C0000242200202DE9F8434FF0000814
:102D1000064600F11805474641463046002F4FD081
:102D200003F032FAF0B12C68B4F5803F07F10401EA
:102D300000F1040E07F5827C27D05EF8042B34FBEB
:102D400002F334FB12F903F30F0209F30F03C2EA93
:102D500003430A6893FA12F341F8043B8C45ECD81C
:102D600003F0D4F908F10108B8F1040F05F10405E6
:102D7000D2D1002F40D030463946002203F0EAF984
:102D80003846BDE8F84303F0C1B907F10C0100F182
:102D90000C0451F8083C54F8082C93FA12F341F84B
:102DA000083C54F8042C51F8043C93FA12F38C4577
:102DB00041F8043C04F1080401F10801E9D8CFE727
:102DC00003F0EEF907460028CCD02868B0F5803F24
:102DD000C8D0391D07F582740B6830FB03F230FB55
:102DE00013F302F30F0203F30F03C2EA034341F8A4
:102DF000043B8C42F0D8B5E7BDE8F88310B500215C
:102E000003F0C2F970B172B60A4B1A6872B10A497E
:102E10000C6844B11C60086062B61046BDE8104002
:102E200003F074B910BD086062B610BD186062B6D8
:102E300010BD00BF3C2200202C22002038B5194BC9
:102E400019491A68194C12681B79194D0B70A24266
:102E5000286836BF2246A4F5807202F58074C8B196
:102E6000011D31F9023B03F5FF437F331B1122F8AB
:102E7000023B9442F5D803F049F90E4B0022196841
:102E800029601A600C4B1B781BB10C4B4FF0804231
:102E90001A6038BD40F2FF7322F8023B9442FBD81F
:102EA000F0E700BF302200201F800040C8B5FF1FA0
:102EB0003C2200202C2200203822002008E200E0E2
:102EC000F8B501215148524D03F0FEF9514A5249DB
:102ED0001368802043F480531360002408702C8012
:102EE0000120083401F0B6FDA3B2B3F5006F1CB2A7
:102EF000F5D14A4B1B685B0208D5494B1A6848F666
:102F0000A273134048F6A27293426DD04349444ADB
:102F10000B68444F444D4548454C43F480030B60D7
:102F20004FF0010E40F23F4648F6A37140F2011304
:102F3000C7F800E02E60116014600360334D3D4916
:102F40002B6800221960197C1A746FF03F01587CBD
:102F500059740C21987C99744021D87CD974997D3E
:102F60009A750124D97DDC7502204FF0FF316FF096
:102F700001065A715A729A72DA721A731A755A7570
:102F80001A765A769A76DA765E739C71DC711871CD
:102F900018729973D973997F29799A7701F18041D1
:102FA000D87FDC7701F5043106201E7F1877B0202A
:102FB0005E7F5A770A70087003F02CF92A791E4B4D
:102FC0001E4E187053119B0003F1604302F01F0561
:102FD0001B49327003F5614302F11000AC40194DFA
:102FE00041F820501C60F8BD0F4B1A6840F23F4377
:102FF0009A428BD10B4B1B68012B87D10B4B1A6864
:1030000040F201139A4281D198E700BF302200209C
:1030100000C00C402C80044021C00C403C80044087
:10302000006003400C6003400460034010600340F4
:10303000A28F0100C8B4FF1F382200201B8000406F
:1030400000B8FF1F3D2E0000044A137802290CBF70
:1030500003F0BF0343F040031370704721C00C40DE
:10306000024A0349034807F05FB900BF74C4FF1F59
:10307000852C000030220020024A0349034807F053
:1030800053B900BF74C4FF1F852C000040220020EC
:10309000024A0349034807F047B900BF74C4FF1F41
:1030A000852C000048220020024A0349034807F00B
:1030B0003BB900BF74C4FF1F852C000050220020C4
:1030C000024A0349034807F02FB900BF74C4FF1F29
:1030D000852C000058220020024A0349034807F0CB
:1030E00023B900BF74C4FF1F852C0000602200209C
:1030F00090F8263003B970472DE9F04F83B00646AB
:1031000002F0B8FF8346B0B196F82600B369B6F96D
:103110002420C0B2032874D010D9822800F03E8148
:10312000832800F00481812859D0584602F0EEFF30
:10313000002386F8263003B0BDE8F08F012800F0A8
:10314000D3800228F1D1A34917460BF1140003F1F3
:10315000400453F8042BD5B2C2F3072C31F91550B3
:1031600031F91CC020F80E5CC2F3074E120E31F983
:103170001EE031F9122020F80ACC2F4465447F105C
:103180006D1020F8107C20F80C5C0CEB0E0702EBA5
:103190000E057F106D10A34220F8087C20F806EC85
:1031A00020F8045C20F8022C174600F11000D0D162
:1031B0004021336AB2848B428CBF5B1A00233046B5
:1031C000B4618CBF336286F826300022594602F083
:1031D000C1FF584603B0BDE8F04F02F097BF0BF1B6
:1031E000080003F5807453F8041B20F8041CA34264
:1031F0004FEA114120F8021C00F10400F3D18021B4
:10320000D7E77449009094460BF1240503F120049C
:10321000CDF804B053F8042B5FFA82FEC2F30727FF
:1032200031F91EE031F9177025F81AEC0EEB4E0A51
:10323000C2F307400CEB0A0BBA4431F9100025F831
:10324000127C07EB47094FEAAA0A25F818AC120EC0
:103250000EEB090A00EB40084FEAAB0B4FEAAA0A53
:1032600031F9122025F81CBC814425F814ACDDF896
:1032700000B025F80A0C07EB080A4FEAA9094FEA43
:10328000AA0A25F8109C25F80CAC1CFB0BE900EBF6
:10329000020AF4449044BE44074412FB0B004FEA78
:1032A0006C0C4FEAA8084FEAA9094FEA6E0E7F108E
:1032B0004FEA6A0A8010A34225F81ECC25F8022C9A
:1032C00025F8088C25F8209C25F816EC25F80E7CAE
:1032D00025F806AC25F8040C944605F1200599D193
:1032E000DDF804B0202164E73A490BF10C0503F145
:1032F000800453F8040B5FFA80FCC0F3072EC0F380
:103300000747000E31F81CC031F81EE031F8177085
:1033100031F8100025F808CCA34225F806EC25F872
:10332000047C25F8020C05F10805E2D167E7154693
:103330000BF1140003F140044FF0030E53F8042B7B
:1033400011B201EB410705EB070812144FEAA80878
:1033500015FB0E1C20F80A1C0D4420F80C8C174499
:1033600001EB020812FB0E116D10BF104FEAAC0CFE
:103370004FEA68088910A34220F80E5C20F8022C5E
:1033800020F8087C20F810CC20F8068C20F8041CCB
:10339000154600F11000D1D120210AE710460BF1AB
:1033A0000C0103F1800453F8042B17B212143844B3
:1033B000D51940106D10A34221F8080C21F8067CA5
:1033C00021F8045C21F8022C104601F10801EAD131
:1033D000EEE600BFE02E0200002280F826200B68F7
:1033E0008284043123F07F421B0E8161C16102623D
:1033F00080F82630704700BF037E002B41D0012BA0
:103400002DE9F0413ED0044602F034FE0546002886
:103410005DD0A28B82BB638B04EB4303B3F92230F4
:10342000291D05F5827647F6AE70002701E0A28BD4
:10343000734604EB4202B2F924E0734400FB03F349
:103440001B1421F8023BA28BB4F81AC004EB42080B
:10345000013292B29445A8F82430A28398BFA78382
:10346000B142E4D120462946002202F073FE2846EC
:10347000BDE8F04102F04ABE04EB4203B3F922304A
:10348000CEE77047134C428B2368E2B11132D0F87B
:1034900020C000EB420E00F1220644F2A71717FBF2
:1034A00013F10D4D9AB2CB0B090407FB02330D400B
:1034B0002B4423F0004202EBD3733CFB03F226F8CB
:1034C000022FB645EBD10222236002769BE72076DD
:1034D000BDE8F0819CD2FF1F0000FF7F036A2DE949
:1034E000F04780464BB9D8F81830D8F81C2003EBC9
:1034F000C213C8F81830BDE8F08702F0BBFD0646DD
:103500000028F0D0D8F81890D8F81C70D8F820C04F
:10351000134D4946841C00F5817E0B0E5A1C35F96B
:10352000130035F91220C1F30F2ACAF5803300FBCE
:1035300003F30AFB023353FB0CF324F8023FA645C6
:103540003944EAD109EBC7174046C8F8187031462C
:10355000002202F0FFFD3046BDE8F04702F0D6BD84
:10356000E03002002DE9F84FB0F918300BB9BDE892
:10357000F88F044602F07EFD05460028F7D0B4F926
:103580002C30061D072B32D8DFE813F066009000C0
:10359000A700B9000800D600E9004C00D4F830C0FC
:1035A000BCF1000F39D0E06905F58278B646C10D4F
:1035B0004A1CC0F3CF13D2B23CF911A03CF912104F
:1035C000B4F91820A76AC3F57F4909F1FF0909FB7F
:1035D0000AF903FB01931B1402FB03F3DB132EF820
:1035E000023B3844C64520F00040E0D1E061B4F928
:1035F0002E206AB105F5827101E0B4F92E20B6F9EA
:103600000030134403F30F0326F8023BB142F4D811
:1036100020460022294602F09DFD2846BDE8F84FCD
:1036200002F074BDE36900F58278374608E0B4F92A
:103630002400A26A27F8020B13444745E361D6D061
:10364000A26A9A42F3D9B4F91810484202F006FF70
:1036500000B2E369A084ECE74A4F00F5827E304671
:10366000E369B4F91810D4F828804FEAD35CC3F3A7
:10367000CF1B37F91C900CF1010CCBF57F4A0AF1F6
:10368000FF0A37F91CC009FB0AF20BFB0C221214CB
:1036900001FB02F2D21320F8022B13EB080348BF00
:1036A00023F000437045E361DAD1A0E7E26900F559
:1036B000827E3146B4F91870A06A42F3CF3303FB1F
:1036C00007F3DB1321F8023B71450244F2D1E261BA
:1036D000B4F92E20002A8DD19AE7E269831D00F506
:1036E000837051004ABF218BB4F91810494223F866
:1036F000021CA16A023398420A44F2D1E7E7E16969
:1037000000F5827E30460029B7BF238BB4F918201C
:103710005B421AB24F004FEA810348BF5B425B0C29
:1037200002FB03F3DB13A76A20F8023B704501EBB1
:103730004701E8D1E1615AE7E269276A831D00F594
:103740008370BA4236BF218BB4F91810494223F86E
:10375000021CA16A023398420A44F2D1B7E7E26937
:1037600000F5827E3146B4F91870A06A42F3CF3377
:1037700003FB07F3DB1321F8023B7145A2EB0002C8
:10378000F1D1A4E7E0300200064B074ADA620221D9
:10379000002259609A7083F8242083F8302083F83F
:1037A00032207047842200205035020008B50121E4
:1037B000007801F035F90E4B1A7802B908BD0D4AB0
:1037C000127800211970002AF8D0D00703D50A49D1
:1037D0000A4B09681960910703D50749084B4968E6
:1037E00019605307EAD5044A064B92681A6008BD6F
:1037F000DC220020802200207422002000E100E072
:1038000004E100E008E100E0204B1A781AB10078EA
:10381000002101F005B970B41D491E4A0C781268E8
:1038200001251D7004B372B60B78DC0707D51A4C5E
:103830001A49266809681A4D3140296021609907A4
:1038400007D5184C154926684968154D3140216047
:1038500069605B0707D51449104B0D689B68104CD5
:103860002B400B60A36062B6104BD968914207D021
:103870000F4C1C600F49DA6042F080441C611960F3
:103880000078002170BC01F0CBB800BFDC22002022
:1038900080220020D822002080E100E06822002061
:1038A0007422002084E100E088E100E000C00240D2
:1038B00001401F0000001F80F0B4134C134A23681E
:1038C00082B01746009300984FF0004680B2FF2563
:1038D000136843F480631360D6625563D36A002B88
:1038E000FCDABB6BDBB2FF2B0AD023680193019B90
:1038F0009BB21B1A8B42EBDB002002B0F0BC70477E
:10390000012002B0F0BC7047D025002000C002406A
:10391000F8B50D464FF4967116460446FFF7CCFFF6
:10392000284B1A684FF0004042F4806245F0400195
:103930001A60D8621A465963D36A002BFCDA21490F
:1039400018204FF000470A6826FA00F342F480621C
:10395000DBB20A60CF624B63CB6A002BFCDA08381B
:1039600010F1080FEFD155B3082D0CBF8721FF21AF
:10397000144B1A684FF0004042F480621A60D8621B
:103980001A465963D36A002BFCDA0E4A0027164602
:103990004FF00045FF21136843F480631360D56244
:1039A0005163D36A002BFCDAB36BD8B21B0660708C
:1039B00000D4F8BD0137B7F5807FECD1F8BD952173
:1039C000D6E700BF00C00240F0B4164C164A236888
:1039D00082B01746009300994FF0004689B2FF2548
:1039E000136843F480631360D6625563D36A002B77
:1039F000FCDABB6BDBB2FF2B43700BD12368019366
:103A0000019B9BB25B1AB3F5967FE9DD002002B003
:103A1000F0BC7047A3F1FE00B0FA80F0400902B09C
:103A2000F0BC7047D025002000C00240F8B5837874
:103A3000032B0E46044618BF4E021546FFF7E4FE60
:103A4000324611212046FFF763FF18B92046FFF7E1
:103A5000BBFF20B92046FFF7A9FE0020F8BD204B90
:103A60002049214A1A608E4659631A4659631E46F8
:103A7000596305F5FD70A91C05F5FE77D36A13F0AF
:103A8000F00FFBD0C6F834E0B36B01F8013C1B1219
:103A900001F8023C02318F42F0D105F50075A842D1
:103AA0000DD20F4A1646D36A13F0F00FFBD0B36B5A
:103AB000191200F8021BA84200F8013CF3D3084B8E
:103AC0000949084A196019465A63CB6A044A13F037
:103AD000F00FFAD02046936BFFF768FE0120F8BD87
:103AE00000C00240FFFF009000041F80F0B4314E80
:103AF00033684FF0004743F4806333603D46F7621C
:103B0000344671633346511C02F20127E26A002AEF
:103B1000FCDA1A6811F8016C42F480621A60DD6206
:103B20005E63E26A002AFCDA1A6811F8026B42F45A
:103B300080628F421A60DD625E63E7D11D49CA6A06
:103B40001C4B002AFBDA1A684FF0004542F48062F1
:103B5000FF241A601946DD625C63CB6A154A002BAC
:103B6000FBDA13684FF0004543F48063FF241360D1
:103B70001146D5625463CB6A0E4A002BFBDA1368F8
:103B80004FF0004543F48063FF2413601146D56273
:103B90005463CB6A074A002BFBDA936BDBB203F06A
:103BA0001F024370A2F10500B0FA80F04009F0BC9A
:103BB000704700BF00C0024070B5044671B1837801
:103BC000032B0D4618BF4D021646FFF71DFE2A4671
:103BD00018212046FFF79CFE054620B12046FFF73E
:103BE000E5FD002070BD3246FE212046FFF77EFF36
:103BF0000028F3D04FF416712046FFF75DFE002831
:103C0000ECD02A460D212046FFF782FE0028E5D1A0
:103C10000B4B1A684FF0004542F48062FF201A6097
:103C20001946DD625863CB6A054A002BFBDA936BB9
:103C300013F0FF0FD2D12046FFF7B8FD012070BD71
:103C400000C00240014B024A1A607047D82200208F
:103C50000110013838B590F90530002B03DBBDE8C1
:103C6000384000F091B904460121006900F0B6F92E
:103C7000F8B1257D104B13EB45151AD0A3790F4AE7
:103C8000012B9CBFA369EB61E36912686B831B0C7A
:103C9000AB8232B105F1160105F1180090472B8B6C
:103CA0006B82637903F07F036371BDE8384000F0F5
:103CB0006BB9002038BD00BFEC220020E0220020BC
:103CC00010B500F1080204460121006A00F024FA50
:103CD00050B1E3693BB96379A268E26163F07F03A5
:103CE0006371012010BD012010BD00BFF8B58379BC
:103CF00013B182698A4201D20020F8BD022B0F461F
:103D000005461AD007B32B6AE9681C7C4A1E04F1E9
:103D100009037C1EDA40DC40A24211D9EB69AB609A
:103D200005F1080606E0A968286A00F0BDF9013C23
:103D30000028E1D03246002CF5D1EF600120F8BD1B
:103D40000029EBD0A41AEBE7AF60EF600120F8BDCB
:103D50002DE9F04F8B46817985B00129804601928B
:103D600006D0012388F80430002005B0BDE8F08FAC
:103D700042799107F5D553070AD5D8F80C40D8F801
:103D800018108C4200F0C680FFF7B0FF0028E8D082
:103D9000019BD8F80C40002B00F0AF80DFF8C891F1
:103DA000DFF8C8A1019F3AE0002C43D1D8F80810F1
:103DB000002940F08380D8F81C20002A00F092806F
:103DC000C8F80820C4F50076B6B2BE4239D890F8DB
:103DD00010E04169023A02FA0EF20D44B6F5007F96
:103DE000154435D1DAF80020954204BF4FF0FF3278
:103DF000CAF80020584A294610685A46FFF7DCFEE8
:103E00000028AED00BF5007B4FF40074D8F80C20DE
:103E1000BF1B1444BFB2C8F80C40002F6DD0D8F8B7
:103E200020000579013D05EA542515F0FF05C4F38E
:103E30000804B9D0C4F50076B6B2BE42D8F808205E
:103E4000C5D9067C4169023AB2400D4415443E464C
:103E50002CB9D8F80C10D8F8182091421BD228465B
:103E6000012100F0BBF800283FF47BAF4C4404EB89
:103E7000060E744520D00BF1FF31621E0EF1FF35A6
:103E800011F8010F02F8010F9542F9D1C4EB0E0EA3
:103E9000F3443446BAE700F077F800283FF461AF06
:103EA0002E49CAF800500A784C4404EB060E42F042
:103EB000010274450A70DED13446A7E703AA00F078
:103EC000F3F800283FF451AFD8F82000244B90F8C5
:103ED0002060039A4FF6F871102E18BF19468A42D7
:103EE000FFF46EAF4046FFF7EBFE00283FF439AF1A
:103EF000D8F82000D8F8082064E7D8F81830A34292
:103F00000DD298F80520C8F8184042F0800288F8D1
:103F100005200FE0019B002B7FF440AF0AE0114B1E
:103F200098F805201B682BB1019B1BB142F0800261
:103F300088F8052012070AD598F80630002B3FF4C0
:103F400010AF4046FFF786FE00283FF40AAF019805
:103F500005B0BDE8F08F00BFE8220020EC2400206F
:103F6000F8FFFF0FE0220020EC220020A0D2FF1F6C
:103F700000B583B002AB012203F8011D1946FFF71B
:103F8000E7FE03B05DF804FB70B50F4C23780BB966
:103F9000012070BD0D4B0E4D196828680D4AFFF7C2
:103FA0000BFE70B10C4E316819B90023237001204B
:103FB00070BD2868074AFFF7FFFD10B1002333608A
:103FC000F3E7002070BD00BFEC240020A0D2FF1F4B
:103FD000E8220020EC220020E422002070B50D4DE4
:103FE0002B6883420E460ED00446FFF7CDFF08B97A
:103FF000002070BD084B094A18682146FFF716FDDE
:104000000028F5D02C60064B197831431970012037
:1040100070BD00BFA0D2FF1FE8220020EC220020CC
:10402000EC240020F8B590F82030C469102B1A4B0E
:1040300005460E4617461B6816D004EBD1149C4269
:1040400016D106F07F06154A42F826701449287EDC
:104050000A78012842F001020A7018D9A968114AA9
:104060000B4413600120F8BD04EB11249C4208D0DE
:1040700000212046FFF7B2FF50B195F82030102BF9
:1040800007D1F6B2054A234622F81670DEE7012072
:10409000F8BD2346D5E700BFA0D2FF1FEC220020C9
:1040A000EC240020E4220020C36801338B4218D3A3
:1040B00070B590F82030102B154B044616460D466F
:1040C000C0691B680FD000EBD11098420FD105F0EA
:1040D0007F01104B53F8213023F0704333600120EF
:1040E00070BD0020704700EB1120984207D00021DE
:1040F000FFF774FF50B194F82030102BE7D1E9B2EC
:10410000044B33F811303360012070BD002070BDC6
:10411000A0D2FF1FEC2200202DE9F04F176883B0DA
:104120006FB301374FF0000AC36803F1010813B3FE
:104130008B46064691463C46002505E01C461F4638
:10414000F3680135AB4216D9A04538BF0224214699
:1041500001AA304638BF2746FFF7A6FF631CD91BCC
:1041600048B1019A002AE9D18B4510D01C46F3686A
:104170000135AB42E8D8002003B0BDE8F08FA1F1D3
:10418000010ABAFA8AFA07684FEA5A1ACCE7012CF0
:10419000F1D9F36801339C42EDD86FF070422146AB
:1041A0003046FFF73FFF0028E5D0A74214D2013C7C
:1041B000012CE0D9F36801339C42DCD8621C214613
:1041C0003046FFF72FFF0028D5D0A74204F1FF3477
:1041D00002D0012CEED1CEE7D9F8001059B1012957
:1041E000C9D9F36801339942C5D83A463046FFF73A
:1041F00019FF0028BFD0C9F80070BAF1000F01D034
:10420000013737600120B7E790F8392090F838007F
:10421000101A704790F8383090F839209A4205D932
:104220005A1C034480F83820187E70474FF0FF3046
:10423000704700BF90F8383090F839209A4286BF16
:104240001B18187E4FF0FF30704700BF704700BF4B
:10425000B0F85E306BB190F85D30202B07D8C218F3
:10426000013380F85D30012082F83B107047012354
:1042700003710020704700BF38B50546B0F85E00F6
:1042800090B195F85D301446C3F1210294420CD8E8
:1042900005F13B001844224600F018F995F85D300E
:1042A000234485F85D30204638BD0120144628712E
:1042B000EEE700BF10B50269D378DBB2D906044639
:1042C0003DD510215806D17038D503F0040303F012
:1042D000FF02002B51D03D49626E00230B7084F821
:1042E0005D30002A5BD0904794F85D30002B56D0AB
:1042F0002369D0229A70236994F83B201A712369AC
:10430000012284F85C200222DA7010BD304B84F860
:1043100060009C424AD02F4B9C4252D094F83910F6
:1043200013791F29DBB207D82848007820B160181C
:10433000013184F8391003760223D37010BD590679
:10434000C3D4917801F0100101F0FF000029DDD005
:1043500013F001031ED194F85C1094F85D008842BC
:1043600081BF4B1C091984F85C3091F83B30137104
:104370002369D0229A702269DEE7236984F8392004
:10438000C0229A702369114A197901211170022201
:10439000DA7010BDC023937022691379CCE7012233
:1043A000002384F85D2084F83B30A1E7626994F82B
:1043B0006130094913440322187A00F05FFA226938
:1043C000ACE7626994F861300449F3E75C250020AA
:1043D00060250020F02400203D44000049440000F6
:1043E0000369DB7803F0200373B190F86030013388
:1043F000DBB2012B80F860301AD9426990F8613045
:104400001344187A00F0B6BA70B5426903F0FF059C
:1044100090F8613013440446187A00F0ABFAA36EAA
:104420005BB184F8385094F83900BDE87040184703
:1044300090F85F30002BE0D0704770BD0148FFF767
:10444000CFBF00BF602500200148FFF7C9BF00BFF4
:10445000F02400200148FFF72DBF00BF6025002099
:104460000148FFF727BF00BFF0240020F0B4104937
:10447000104B114A0A6100224FF47A740F4F104812
:10448000104E114D0A710A7381F8612081F8622083
:104490001A711A7383F8612083F862204F618C606F
:1044A0009C601E615D6108601860F0BC704700BFD1
:1044B00060250020F02400200060064058350200EE
:1044C000A03502000070064078350200844641EABB
:1044D000000313F003036DD1403A41D351F8043B7C
:1044E00040F8043B51F8043B40F8043B51F8043BCE
:1044F00040F8043B51F8043B40F8043B51F8043BBE
:1045000040F8043B51F8043B40F8043B51F8043BAD
:1045100040F8043B51F8043B40F8043B51F8043B9D
:1045200040F8043B51F8043B40F8043B51F8043B8D
:1045300040F8043B51F8043B40F8043B51F8043B7D
:1045400040F8043B51F8043B40F8043B51F8043B6D
:1045500040F8043B51F8043B40F8043B403ABDD2DC
:10456000303211D351F8043B40F8043B51F8043B7E
:1045700040F8043B51F8043B40F8043B51F8043B3D
:1045800040F8043B103AEDD20C3205D351F8043B0D
:1045900040F8043B043AF9D2043208D0D2071CBFD9
:1045A00011F8013B00F8013B01D30B880380604602
:1045B000704700BF082A13D38B078DD010F0030378
:1045C0008AD0C3F10403D21ADB071CBF11F8013BE8
:1045D00000F8013B80D331F8023B20F8023B7BE737
:1045E000043AD9D3013A11F8013B00F8013BF9D262
:1045F0000B7803704B7843708B78837060467047FC
:1046000030B42948294A2A4B2A4D6024E1210470FC
:1046100011701B78284C082B30D00A2B27482849CA
:1046200037D00C2B0CBF35223D2212232A60236089
:1046300002600B60234B24491B78244ABBB1012341
:104640000B601360224B23491B78234A012B26D988
:10465000042B0FD9082B1ED9102B94BF8623872338
:104660000B6013601D4B01221A7030BC70470B6049
:104670001360E7E784230B601360F3E700F58E20F7
:104680000F490830012213232A60236002600B6067
:10469000D0E73922F7E785230B601360E2E7802338
:1046A0000B601360DEE700BF004007400140074099
:1046B000A4D2FF1F08B003400CB0034008B00B4069
:1046C0000CB00B40CD25002020B0034020B00B40A3
:1046D000A5D2FF1F24B0034024B00B40CC250020FE
:1046E000024A136801331360704700BFD0250020D1
:1046F00008B5104C08E0236859050DD423681A0545
:104700000FD42368DB0411D423685803F3D500F0D9
:1047100063FB23685905F1D502F08AFC23681A056A
:10472000EFD503F027F82368DB04EDD503F0DAFAC0
:10473000EAE700BF3480044008B5FFF7D9FF00BFA7
:10474000014B10221A80704700200540704700BFBF
:10475000094908B50B6830B16A461844A2F5805281
:10476000904202D20860184608BD05F0E9FD0C230E
:1047700003604FF0FF3008BDA8D2FF1FFEE700BF67
:10478000EFF3138070B9EFF310836BB9EFF3058289
:104790005AB94FF48070EFF311832BB1984228BFC0
:1047A000184670474FF0FF3070470F2A01D818465F
:1047B000F1E7014BD05CEEE7F0E300E0704700BFAB
:1047C00010B40F4B53F8302092F880422CB10123E3
:1047D00069B182F8803010BC704703EBC0035B689E
:1047E0001A6841B922F002021A6010BC704782F8C0
:1047F000003110BC704742F003021A6010BC7047D1
:10480000B83502001C4A02EBC00301295B6811D0D5
:1048100004291BD052F83000002280F8802229B1F0
:10482000022920D0032922D01A6070474FF48072E9
:104830001A60704752F830004FF4A27280F880126C
:104840001A601A6822F020021A60704752F830107D
:104850004FF4A272012081F880021A601A6842F0B7
:1048600020021A60704740F203121A6070474FF43A
:1048700081721A60704700BFB8350200212817D82E
:10488000F8B5042A13D8DFE802F0494C4F1446006B
:104890002C4872B6236823F4702343F08072C4F36B
:1048A00084011643236040F82150266062B6F8BDAB
:1048B00070474FF41026244B03EBC0030D465C6891
:1048C000216811F4E06134D0204B214A2149C3F81A
:1048D0009C2104F140422048C3F8A411A2F5922182
:1048E0001E4FC3F8A0017C291D48C3F8A871C3F866
:1048F000AC01CDD9A2F594237C2B18D9A2F596232F
:104900007C2B19D9A2F598237C2B17D9A2F59A22D2
:104910007C2A15D9F8BD4FF43026CCE74FF4002699
:10492000C9E74FF44026C6E74FF42026C3E70D48F9
:10493000AFE7FFF767FFC7E70B48AAE70B48A8E711
:104940000B48A6E7ACD2FF1FB835020000B8FF1F26
:1049500049C4FF1FF1C3FF1F1DC4FF1FC5C3FF1FB5
:1049600099C3FF1FE4D2FF1F34D3FF1F64D3FF1F7F
:1049700084D3FF1F1A4B03EBC00010B4426802F14E
:104980004043A3F592217C2905D9A3F594217C29E4
:1049900013D8144900E0144972B61368134C23F07D
:1049A0008773C2F3840023F4803343F08073136071
:1049B00041F8204062B610BC7047A3F596217C29CF
:1049C00009D9A3F598217C2907D9A3F59A237C2B33
:1049D000F1D80749E0E70749DEE70749DCE700BF10
:1049E000B8350200E4D2FF1FACD2FF1FBD47000064
:1049F00084D3FF1F34D3FF1F64D3FF1F30B4054B94
:104A0000054D064C002210211A602A6020601960B2
:104A100030BC704714D0034004D0034000D00340A2
:104A2000212801D8FFF7CCBE704700BF212806D847
:104A3000044B53F8303093F80002C0B270470020A6
:104A4000704700BFB8350200212801D8FFF7DABE51
:104A5000704700BF2DE9F843054672B6204F214B41
:104A6000214A1B683C68126862B6520102D5322B9B
:104A700088BF013495B3C3F5BB331C4EDFF8649097
:104A8000DFF86480FF334FF47A72A6FB031302FB56
:104A900004F404EB931472B6D9F800103A68D8F80D
:104AA00000E062B6C1F5BB33FF33A6FB03031EF083
:104AB000806FC4EB93134FF47A7002D0322988BF11
:104AC000013200FB0233B3F57A7F04D3013D05D0F8
:104AD00004F57A74DFE701F035FFDCE7BDE8F88321
:104AE000D025002018E000E004ED00E0ABAAAAAA5F
:104AF000F8B52D4B2D49DFF8D0E0DFF8D0C02C4EB3
:104B00002C4D2D4C2D4A2E4F4FF4000018604FF0C5
:104B1000807018604FF0007018604FF0806018606F
:104B20004FF0006018600020086028234BF6FF71EA
:104B3000CCF80010CEF80030336013602B60236097
:104B40003B60B3629362092245F8242CC4F8D80F65
:104B500005F57F65C7F8D41F07F5FF2707F5FA6746
:104B6000C6F8F83F2B6006F5FF26C4F8D42F05F5EC
:104B7000FD2504F5FF24386006F2F4761148316013
:104B800005F5FF6504F5FD642B6023600260FFF707
:104B900037FD3220FFF75EFF00F08CFE4FF4AF7060
:104BA000BDE8F840FFF756BF08E100E0048003408D
:104BB00014800340248003402C8003401C80034069
:104BC0003480034000800B400C8003400880034089
:104BD00021282FD8184B195CFF292BD0174B184AC6
:104BE000DFF870C003EBC000F0B54368DFF868E0A1
:104BF000144F154D154E00241C60DEF800300120C6
:104C000043F020038840CEF8003014604FF4A073C6
:104C100038602E60C2F800C0013BFDD113689B05CF
:104C2000FCD42023013BFDD1094B09B233F811001C
:104C300080B2F0BD00207047C8360200B8350200CF
:104C40000050044008500440045004400000020397
:104C50000051044080014A0038800440431E072B65
:104C600014D872B60A4951F8230068B170B4094CDF
:104C7000058834F81320466841F82360521B24F855
:104C8000132062B670BC704762B670470020704750
:104C90003C260020B4290020013807280BD872B622
:104CA000074B53F8203043B100205B680130002BE4
:104CB000FBD162B67047002070471846F9E700BF85
:104CC000A0260020F0B5864672B6022201231C49B8
:104CD0001C4F02E0294601330132072B01F1010587
:104CE000F9D0097817489C00090744F0010605D55A
:104CF00057F8341069B157F83610C1B1092AE9D113
:104D000062B6114B00221A707046BDE8F04000F008
:104D10004DBE0D490D4D0A7840F8345000EB431359
:104D20000EF10800013A58600A7062B6F0BD0649FB
:104D3000074B40F836300A7800EBC603F0E700BFB7
:104D40001C3702000080FF1FE92600208800400079
:104D5000C8004000431E072B1DD81B4A400140F0ED
:104D6000100030B4104472B6184CE25C032A1BD811
:104D7000DFE802F00212151703220D88E25410F04A
:104D8000080F14BFC823882343EA05430831036092
:104D9000416062B630BC704708300222EDE7052260
:104DA000EBE708300422E8E7094A52F8230038B15B
:104DB000084A52F82300416042F8231062B6E9E73E
:104DC00042F82310034AF7E70080FF1FF82600206F
:104DD000A0260020C02600202DE9F04FDFF844A3D4
:104DE000DFF844B389B049E0DFF840834FEA930924
:104DF00008EBC907013C7A68E4B2052CA2F108006F
:104E000000F02081062C00F03C81072C00F051813D
:104E10001E0700F1388158F839301B0C99B222F87E
:104E2000081C002B00F02481A94D55F824600023B4
:104E300022F8063C42F8043C002E00F01982A54EF0
:104E400056F824305860A44D46F8240035F8143044
:104E5000194425F8141000F089FD002800F00182A3
:104E60009E4A9F4B17F0080F00F1080018BF134629
:104E7000786048F8393008238AF800309AF8004002
:104E8000E4B263071CD5974B1B78B3B196490A78F7
:104E900002F0FF0322B1013BDBB20B7003B900BE8D
:104EA00092490A7802F0FF032AB1013BDBB20B7092
:104EB000002B00F0AC8100F00DFE04238AF80030D6
:104EC00004F0080303F0FF02002B00F03E819BF882
:104ED0000030DBB21C0987D19D08DFF8509259F8E9
:104EE000352009EBC501C2F38302013A49680C2A57
:104EF0007CD8DFE802F07F7F7B7B7B7B7B7B4A7B00
:104F00007B7B07000A687A4E49687A4B73487A4C73
:104F1000716091B249F83500326001200022B1F58C
:104F2000086F01931A60C9F81020C9F81820079279
:104F3000207000F0508340F2298142F22135A942CD
:104F400000F0FC8200F2168240F60132914200F03D
:104F5000CC8200F2A182B1F5106F00F05F8340F6C1
:104F60008122914240F0FC81614B07909A88042A8B
:104F700000F04084052A40F0F381604A60495C4BB0
:104F80001278DF880A70012010E25A4B01931968E9
:104F900031B35C4B584C5C4A188825781678402809
:104FA000074646F0020C28BF4027002D85F001057A
:104FB0002570A0EB07000CBF8824C82409EBCC05A2
:104FC00080B286F0010644EA07446960188049F817
:104FD0003C4039441670002800F00C81019B196098
:104FE000434B1A88B2F5A06F00F00881474A0123AD
:104FF000137040E73E4A108842F22102904200F0CE
:105000004B813B4801F05CFCA8B13F4A3A4C117817
:10501000207881F00106002841F0020116700CBFD3
:105020008822C82249F8312009EBC10180F0010033
:10503000002220704A60294A49F83520334A01236A
:10504000137018E719077FF5E6AE01F08BFB002817
:105050003FF411AF87F0080700042D4B2D4A7B6009
:1050600040F080003860537983F00103537102E708
:105070001A4A1B4B17F0080F18BF134648F839306F
:10508000F9E61B0777D500F091FC234A214D52F831
:105090002430002B00F0F0805968285D42F824107D
:1050A00003F108027A60032844D8DFE800F0A04149
:1050B0009D9A1D077FF5AFAE87F00807174A7A6003
:1050C000174B144A3B60D37983F00103D371D2E6C6
:1050D0003C260020D8250020B4290020C80040002C
:1050E00088004000F42600205D260020382700209C
:1050F000E0260020D42500205C2600208327002005
:10510000EC260020F8250020E82600209420074007
:1051100074BAFF1FF8260020A0260020BCB9FF1F8C
:105120008000030080200740902007400080FF1F80
:1051300002222A551A8817F0080F0CBF8823C823AB
:1051400043EA024348F8393095E6E00762D4210685
:1051500000F1C780A20706D5B74AB84913780220E4
:10516000DBB213700870E30602D5B44B10221A703C
:1051700009B0BDE8F08F58F83900000C01F032FAA0
:10518000AF4AB04B7A6048F8393074E640F20230EA
:10519000814200F0288200F2AE80B1F5817F00F0FC
:1051A000078200F2D580802900F03082822940F009
:1051B000D780A54B9988082900F2D280A348A44D36
:1051C000A14B2A70890008446A700278DF88A049E0
:1051D000900748BF01224FF0020048BF2A70079095
:1051E000E4E004222A55A5E705222A55A2E7032276
:1051F0002A559FE7402F18BF0021EFE600219A783B
:105200005970944B1A70944A0123137033E600F0DE
:10521000E1FE50E6914B904891491A614FF0020E21
:1052200080F800E0894F0A708E4919609960824EBB
:10523000824D884C9A610D213970FF213170DFF861
:1052400054E229702270884D884A8EF800109F27FA
:10525000012406F8047C5D600470DA6009B0BDE8E2
:10526000F08F834A48F8390013780133137002E64F
:1052700045F824007F4EE6E52B5D032B00F22E81DE
:1052800001A252F823F000BF774E0000774E0000D5
:10529000435300003D530000774ACE1D11F8013BF7
:1052A00002F8013FB142F9D1744A1268862A4BD004
:1052B0006B4A734C1078217880F0010E002940F081
:1052C000020082F800E00CBF8822C82249F8302092
:1052D00009EBC00081F001070022314627704260CF
:1052E0008FE65A49554B80220D2008701A70A2078C
:1052F0007FF539AF30E7B1F5A06F00F01F8140F2C4
:105300005D82A1F5D06101292AD85E4A516839B37E
:105310004D4B5D889E8802E00C32516801B31388C2
:10532000AB42F9D15388B342F6D12D0A032D00F0D8
:105330008882454B10890790DF8837E001232B5581
:1053400099E500232B5596E54F4A0F211170AFE7E1
:1053500040F22113994206D040F22123994202D013
:105360003A4A0F2313703C4A012313703A4A01232F
:10537000137080E548F2A120814200F00C8100F218
:10538000018148F2A110814200F0058148F2A2108B
:105390008142E5D12C4BDF88022FE1D92C494420F2
:1053A0008A700870AC2203204A700790874280F010
:1053B000C780402F3E4694F800E0079728BF40265C
:1053C0008A198EF00108B81B33040292244A84F82B
:1053D00000801578BEF1000F45F0020C0CBF882745
:1053E000C8271F4309EBCC0349F83C7085F001073F
:1053F000596017702249002800F08480402840F24C
:105400008480164B029C47F0020703EBC7035C60E5
:10541000B8F1000F00F0A18081F800E00F491B4BAC
:10542000157041F83730224640384032184B019908
:1054300018800A6097E700BF882007408020074057
:10544000C0B9FF1F8000B400E0260020C020074044
:10545000EC26002098200740942007400080FF1F82
:10546000E826002088004000FC250020602600205F
:10547000E9260020D8250020072A0020082A00203D
:105480005C260020243702005D260020C800400072
:10549000F82500208C20074042F2210291423FF47F
:1054A00062AF42F2212291427FF45AAFAE4DAF4B30
:1054B000AF48B04A2D68997805601170AE4A1578EA
:1054C00045F0020185F0010709EBC1001770C825FE
:1054D000002249F831504260227044E717F0080F6B
:1054E0000CBF022303232B55C5E4A04B9A88042A42
:1054F00000F08681052A7FF433AF9C4B9F4A598880
:105500001170DBE7402E7FF42EAF47F0020709EB66
:10551000C703029E5E609A490304B8F1000F27D1C9
:1055200043F08803064441F83730157084F800E0F2
:10553000324640287FF417AF002077E7002001466D
:105540004028064694F800E028BF40268A198EF0CD
:105550000108801B3304029238E781F800E01570DF
:105560008749029A874B41F83730403840325DE72F
:105570001570029A84F800E043F0C803024441F831
:105580003730D6E748F2A132914204D048F2A14226
:1055900091427FF4E5AE754D7B49284607AA01F09C
:1055A0005BF900283FF4DCAEEF8807987649FDE60A
:1055B0006E4B9A8802F07F02082A3FF6D1AE5988D6
:1055C00000297FF4CDAE7149920011440A7822F08F
:1055D00002020A7072E76E4B6B491A78634B0790B0
:1055E000DF880A70E2E6614B9A8802F07F02082A9F
:1055F0003FF6B6AE598800297FF4B2AE63499200F7
:1056000011440A7842F002020A7057E75E49574B8C
:105610000A700220DF884A700790C7E6534B584D46
:105620009A785B4B05F580761A7002E00835AE4239
:1056300007D02B6A1F06F9D5686A083800F0B6F95A
:10564000F4E75449544B554A02915549554E564D2D
:105650000395059404964FF000081D4614460E4627
:10566000286828B1476800F0A1F93846002FF9D121
:1056700000232B60049B20681A46002342F8283040
:1056800028B1476800F092F93846002FF9D100227E
:105690002260029A33781146002241F8042F039ABF
:1056A0000291023B4FF0000122F81810032B06D89C
:1056B000DFE803F0510251024FF00103337008F1AB
:1056C0000108B8F1080F05F1040504F1040406F11E
:1056D0000106C5D1354B3649059C02940022DFF8FE
:1056E000D8800A70022701261C4611E0B50045F05B
:1056F000020245F003050021082E49F8321049F84E
:1057000035101F4D00F0B280092F28D00136013727
:1057100018F8012B04F8042B072E00F097801507CA
:10572000E4D500F023F900285CD0B50009EB46125F
:10573000144B49F835300830506000F017F9002854
:1057400047D045F0010209EBC2010830194B49F876
:1057500032304860CBE74FF000033370AFE7034BC4
:10576000029CDF88079821E6D0250020E026002053
:10577000102A002048270020E82600208327002048
:105780000080FF1F88004000EC260020C02007405A
:10579000F4260020BC2600203C260020A026002065
:1057A000F8260020D8250020B4290020C420074076
:1057B000E9260020C80040001C37020040F22133D7
:1057C00099423FF4D0AD40F2214399423FF4CBAD32
:1057D000C6E52C4B1A7845F00101013249F8310039
:1057E0001A7084E7274B1A78B500013249F8350062
:1057F0001A70A2E7244A25491278DF880A70D5E595
:105800009A7821490A70002A3FF458AE204D214A67
:105810006F79A2F10806002F18BF1646326812F001
:1058200080017FF44BAEDFF88880B022404605F05F
:1058300075F887F00107184AC6F804806F71326066
:105840003CE6164B0878DF880790AFE5144A154907
:10585000C9F8E420C9F8EC200022C9F8E010C9F822
:10586000E810C9F8F020C9F8F8204FE705EBC206A8
:105870000A4F0D480D4B45F83200029CFF887360BB
:10588000079893E5E926002082270020EC260020D7
:10589000F8260020D880FF1F8000B000E0260020FE
:1058A000C0B9FF1F8000B40080000300BCB9FF1F17
:1058B00074BAFF1F2DE9F843204C02F07FFA002252
:1058C00004F5847023461A605A60083383424FF00F
:1058D0000001F8D11A4A1B4F13681B4D1B481C4E80
:1058E000DFF87880DFF878C0DFF87890DFF878E0CC
:1058F00043F480231360C4F307233B70C4F30743CE
:105900002B70240EFF2302F528320470114D88F805
:10591000003011488CF80030D4323370012389F8FC
:10592000003070268EF800104FF40074102107F834
:10593000183C2E7004601170BDE8F8830080FF1FD2
:10594000348004409C200740B0200740B42007402A
:105950001020074049E400E008E100E08020074013
:1059600088200740942007400021074072B60D4868
:105970000268B2FA82F31D2B10DC4FF00041D940CF
:1059800022EA0102026062B6074803EBC303DB00B0
:10599000C2180021C15010465160704762B6002005
:1059A000704700BF8CD3FF1F28BBFF1F0D4B0E4A53
:1059B000C31AA2FB03231B091D2B0CD80B4A127818
:1059C00052B972B60A484FF00041026821FA03F357
:1059D0001A43026062B67047064A1278002AF0D075
:1059E000FFF770B928BBFF1F398EE338E926002086
:1059F0008CD3FF1FF426002038B50B4C21783C29AE
:105A0000054607D03B2904D84B1CDBB2074A23705C
:105A1000555438BD064B1B68002BFAD000220348B2
:105A2000984700210123F1E7C5290020CC29002057
:105A3000242700202DE9F843224E234F316801230B
:105A400080463B70C1B1214D4B8801EB830001338F
:105A500000220F2BC0F808802A7004D84B80002346
:105A60003B70BDE8F88340230B800420FFF772F9F8
:105A7000FFF77CFF3060F2E7DFF8549099F80030D0
:105A8000002BEED0114D45F6215408E0013C12D018
:105A90002B7883B900F056FF99F800307BB10420D1
:105AA000FFF7FAF80528F1D8FFF760FF01463060EC
:105AB0000028EBD0C8E701232B70BDE8F883BDE8D0
:105AC000F88300BF1C270020042700202027002087
:105AD000F4260020094B1B787BB910B5084C2168CF
